:100000000C945A000C9475000C9475000C947500B7
:100010000C9475000C9475000C9475000C9475008C
:100020000C9475000C9475000C9475000C9475007C
:100030000C9475000C9475000C9475000C9475006C
:100040000C94CC010C9475000C9412040C9438049C
:100050000C9475000C9475000C9475000C9475004C
:100060000C9475000C947500000024272A000025CC
:10007000282B000023262904040404040404040299
:100080000202020202030303030303010204081035
:100090002040800102040810200102040810200002
:1000A0000000070002010000030406000000000039
:1000B0000000000011241FBECFEFD4E0DEBFCDBF93
:1000C00011E0A0E0B1E0E0ECF9E002C005900D9293
:1000D000A030B107D9F711E0A0E0B1E001C01D9256
:1000E000A23EB107E1F70C94C1010C9400004F92BD
:1000F0005F926F927F928F929F92AF92BF92CF92B8
:10010000DF92EF92FF920F931F932B0139014A0167
:10011000AA2797FDA095BA2FBC01CD010E948404A7
:1001200028EEE22E23E0F22E012D112D28EE33E0F1
:1001300040E050E00E94C50459016A01F20160816B
:100140007181882777FD8095982FE618F7080809B0
:100150001909A80197010E94840428EE33E040E0C9
:1001600050E00E94C504A20EB31EF201B182A0822B
:10017000C5011F910F91FF90EF90DF90CF90BF903E
:10018000AF909F908F907F906F905F904F90089569
:100190000F931F93109213011092120180E090E0D0
:1001A000FC01EE0FFF1FEE5FFE4F008111810E94E8
:1001B0008202909315018093140160911201709155
:1001C0001301660F771F6E5F7E4F24E630E040E03C
:1001D00050E00E94770090931501809314018017DE
:1001E0009107D1F08091120180680E946004809193
:1001F000140190911501880F892F881F990B0E9477
:100200006004809114018F770E94600485E090E083
:10021000909301018093000180911201909113014C
:1002200001969093130180931201863091050CF48E
:10023000B7CF109213011092120180E090E08E5F10
:100240000E940F03909315018093140140911201B5
:1002500050911301DA01AA0FBB1FFD01EA5EFE4FA8
:10026000208131818217930769F1A65DBE4F8D9180
:100270009C91892B39F5842F806C0E9460048091B9
:1002800014010E9460044091120150911301FA017F
:10029000EE0FFF1FDF01A65DBE4F8AE090E08D9359
:1002A0009C9385E090E09093010180930001EA5EC9
:1002B000FE4F8091140190911501918380838AE013
:1002C00090E00AC0FA01EE0FFF1FE65DFE4F80814D
:1002D00091811816190644F4FA01EE0FFF1FE65D2E
:1002E000FE4F019791838083CA0101969093130179
:1002F000809312018A3091050CF4A1CF8091000106
:10030000909101018230910574F061E08DE00E94CE
:100310005B0380910001909101010197909301018D
:10032000809300010AC0019741F460E08DE00E94D3
:100330005B0310920101109200011F910F9108952B
:10034000109213011092120180E090E060E08E5F45
:100350000E94F102809112019091130101969093F5
:100360001301809312018A30910584F361E08DE0DE
:100370000E94F10260E271EA87E090E00E94A60329
:100380000895CFEFD4E0DEBFCDBF0E9438020E94B7
:10039000A0010E94C800FDCF1F920F920FB60F92CE
:1003A00011248F939F93AF93BF9380913E019091BF
:1003B0003F01A0914001B09141010196A11DB11DE5
:1003C00080933E0190933F01A0934001B09341017F
:1003D000BF91AF919F918F910F900FBE0F901F9083
:1003E000189560913E0170913F018091400190917C
:1003F000410127E0660F771F881F991F2A95D1F7C3
:100400002DE730E040E050E00E94A304CA01B901AA
:100410000895AF92BF92CF92DF92EF92FF920F9327
:100420001F935B016C010E94F1017B018C010E9412
:10043000F1016E197F09800B910B6A157B058C0504
:100440009D05A8F31F910F91FF90EF90DF90CF9043
:10045000BF90AF900895019751F0880F991F880FB2
:10046000991F02972FB7F8940197F1F72FBF0895BE
:10047000789410923E0110923F0110924001109228
:10048000410184B5826084BD84B5816084BD85B539
:10049000826085BD85B5816085BDEEE6F0E0808136
:1004A00081608083E1E8F0E08081826080838081E8
:1004B00081608083E0E8F0E0808181608083E1EB0F
:1004C000F0E0808184608083E0EBF0E080818160F7
:1004D0008083ECE7F0E080818F7780838081806487
:1004E0008083EAE7F0E0808184608083808182609D
:1004F0008083808181608083808180688083109286
:10050000C100089590917C00907F8F70982B9093FC
:100510007C0080917A00806480937A0080917A00D8
:1005200086FDFCCF20917800809179009927982F43
:1005300088273327822B932B08951F93CF93DF9324
:10054000182FEB0161E00E94F102E12FFF27E15635
:10055000FF4F8491833051F48091800080688093B4
:100560008000D0938900C093880037C0843051F454
:1005700080918000806280938000D0938B00C09334
:100580008A002BC0813029F484B5806884BDC7BD42
:1005900024C0823029F484B5806284BDC8BD1DC0EA
:1005A000863041F48091B00080688093B000C093A1
:1005B000B30013C0873041F48091B0008062809313
:1005C000B000C093B40009C0C038D10514F460E095
:1005D00001C061E0812F0E945B03DF91CF911F91E9
:1005E0000895282F3327C90185579F4FFC01949107
:1005F00029583F4FF9018491882381F0E82FFF2784
:10060000E859FF4FE491FF27662329F480819095F4
:100610008923808308958081892B80830895482FC2
:100620005527CA0181569F4FFC012491CA01855765
:100630009F4FFC01949149585F4FFA013491332345
:1006400019F480E090E00895222331F1233021F461
:10065000809180008F7705C0243031F48091800034
:100660008F7D8093800018C0213019F484B58F7776
:1006700004C0223021F484B58F7D84BD0DC02630A6
:1006800021F48091B0008F7705C0273029F4809144
:10069000B0008F7D8093B000E32FFF27EE58FF4F0F
:1006A000E491FF27808120E030E0892311F021E0F0
:1006B00030E0C9010895482F5527CA0181569F4F40
:1006C000FC012491CA0185579F4FFC019491495820
:1006D0005F4FFA0134913323C1F1222331F12330EA
:1006E00021F4809180008F7705C0243031F480910F
:1006F00080008F7D8093800018C0213019F484B56C
:100700008F7704C0223021F484B58F7D84BD0DC065
:10071000263021F48091B0008F7705C0273029F46E
:100720008091B0008F7D8093B000E32FFF27E359C5
:10073000FF4FE491FF27662329F480819095892358
:10074000808308958081892B80830895EF92FF92A2
:100750000F931F937B018C0122E030E040E050E0DA
:100760000E94C504205C3D4B404F5F4FCA01B90158
:10077000A80197010E94C5042150304040405040DC
:10078000BB2757FDBA95A52F942F832F2F5F3F4F7F
:100790004F4F5F4F8093C50021502093C400E1EC80
:1007A000F0E08081806180838081886080838081A7
:1007B000806880831F910F91FF90EF900895292FFB
:1007C00033272093C5008093C400E1ECF0E08081E2
:1007D000806180838081886080838081806880835D
:1007E000089580910E0190910F01891B8F779927B1
:1007F000089520910F0180910E01821719F48FEF57
:100800009FEF0895E22FFF27EE5BFE4F80812F5F61
:100810002F7720930F019927089580910F018093DE
:100820000E0108951F920F920FB60F9211242F936D
:100830008F939F93EF93FF932091C600E0910E0159
:10084000EF5F9E2F9F77E15080910F01981731F055
:10085000FF27EE5BFE4F208390930E01FF91EF91F7
:100860009F918F912F910F900FBE0F901F90189511
:100870001F920F920FB60F9211248F939F93EF93B5
:10088000FF9390911101E92FFF27EE53FE4F8081D6
:100890008093C6009F5F9F7180911001981729F483
:1008A0008091C1008F7D8093C10090931101FF91D1
:1008B000EF919F918F910F900FBE0F901F90189501
:1008C000282F8091C00085FF06C090911101809172
:1008D00010018917B1F0E0911001EF5F9E2F9F7119
:1008E000E150809111019817E1F3FF27EE53FE4F7D
:1008F0002083909310018091C10080628093C10099
:1009000008952093C6000895629FD001739FF0015F
:10091000829FE00DF11D649FE00DF11D929FF00D8F
:10092000839FF00D749FF00D659FF00D9927729FC6
:10093000B00DE11DF91F639FB00DE11DF91FBD0151
:10094000CF0111240895A1E21A2EAA1BBB1BFD01A1
:100950000DC0AA1FBB1FEE1FFF1FA217B307E4079E
:10096000F50720F0A21BB30BE40BF50B661F771FF6
:10097000881F991F1A9469F76095709580959095D6
:100980009B01AC01BD01CF01089597FB092E0526FF
:100990000ED057FD04D0D7DF0AD0001C38F4509594
:1009A0004095309521953F4F4F4F5F4F0895F6F793
:1009B00090958095709561957F4F8F4F9F4F0895CB
:00000001FF
